:020000020000FC
:1000000008E00EBF0FE50DBFA0E8B0E009E40D93D6
:100010000EE40D9303E50D9304E50D9302E50D93B6
:1000200005E50D930DE40D9305E40D930EE40D939A
:1000300004E50D9301E40D9304E50D9309E40D939C
:100040000FE40D930EE40D9300E00D930EE40D9379
:100050000EE20D9303E40D930EE20D9303E50D9371
:1000600001E40D9308E40D9309E40D9304E50D9369
:1000700008E40D9300E00C930FEF07BB889A899A70
:10008000919808E308BB0E94730002E008BB0E943D
:10009000730001E008BB0E9473000CE008BB0E94E3
:1000A000730006E008BB0E94730000E808BB0E94D2
:1000B0007300A0E8919A0D9108BB0E9473000C9107
:1000C0000030C1F7919800EC08BB0E947300A39523
:1000D000919A0D9108BB0E9473000C910030C1F7FA
:1000E00000000C947000909A20E51FEF00001A9514
:0A00F000E9F72A95D1F790980895DA
:00000001FF
