:020000020000FC
:1000000008E00EBF0FE50DBF00EF07BB889A899A85
:10001000919800E208BB0E943D0008E20E944E0059
:1000200001E00E944E000CE00E944E0000E40E949D
:100030004E00919A04E00E944E000EE00E944E0095
:100040000EE00E944E000EE00E944E000FE10E9462
:100050004E0000E00E944E0004E00E944E0000E0CE
:100060000E944E00919802E80E944E00919A00E092
:100070000E944E0000000C943A00909A20E21FEF7C
:1000800000001A95E9F72A95D1F7909820E21FEF22
:1000900000001A95E9F72A95D1F7089508BB0E9448
:0C00A0003D00029508BB0E943D00089541
:00000001FF
