:020000020000FC
:1000000008E00EBF0FE50DBF00EF07BB889A899A85
:10001000A0E8B0E005E40D930DE60D9302E60D9324
:1000200005E60D9304E60D9304E60D9305E60D93A6
:1000300004E60D9300E20D9303E50D9309E70D939C
:1000400003E70D9304E70D9305E60D930DE60D937D
:1000500003E70D9300E00C93919800E208BB0E9427
:100060004B0008E20E94550001E00E9455000CE0A0
:100070000E94550006E00E94550000E80E945500CD
:10008000A0E8919A0D910E9455000C910030C9F79B
:1000900000000C944800909A20E21FEF00001A958F
:1000A000E9F72A95D1F79098089508BB0E944B0074
:0A00B000029508BB0E944B00089562
:00000001FF
